:100000000A128A11FC2F00308A000408840A820731
:100010000034013400340A34003464340034E834E9
:100020000334103427344434693473347434613401
:100030006E34633465343A342034253464342034E7
:0600400063346D3400344E
:10038C0000300A128A11F7210A128A1101300A125E
:10039C008A11F72108008312031306140630F000AB
:1003AC00F00BD62900008312031306100800F0008E
:1003BC00701CE429831203138815E7298312031395
:1003CC008811F01CEB290816EC290812701DF02975
:1003DC008816F1298812F01DF52908170800081352
:1003EC000800F30083120313081073080A128A1111
:1003FC00DD210A128A118312031308151A30F20038
:10040C00F830F100F10B082AF20B082A00008312D5
:10041C00031308110800F800F601F70176087807B5
:10042C00F50075088400831300080319080076088A
:10043C007807F50075088400831300080A128A11E6
:10044C0083220A128A110130F6070318F70A0030CA
:10045C00F707142AFD01F91F3A2AF809F909F80AD5
:10046C000319F90AFD01FD0A7808F0007908F1007A
:10047C00F2018E30FB007B08F3007D08FC007C0849
:10048C00F4000A128A119A247008F8007108F90015
:10049C007208FA0008007808790403197E2AFD0115
:1004AC00FD0AF91B652A01300310F80DF90DFF3E0A
:1004BC00031D5A2A0130FC007C08FD07572A7908D5
:1004CC007B02031D6B2A78087A02031C732A7808B6
:1004DC00FA027908031CFB03FB0201300310F90C30
:1004EC00F80CFF3E031D742A0130FD02031D652A22
:1004FC007B08F9007A08F8000800F40074080F393A
:10050C00F1007108F2007408F039F1007108F30081
:10051C008312031308147308F10004300310F10C58
:10052C00FF3E031D942A71080A128A11DD210A125A
:10053C008A118312031308154230F100F10BA42A1F
:10054C00000083120313081172080A128A11DD21AC
:10055C000A128A118312031308154230F100F10BB1
:10056C00B52A00008312031308110800F501F601E7
:10057C00700871040319F32AF701F70AF11BD22A48
:10058C0001300310F00DF10DFF3E031DC72A0130A1
:10059C00F4007408F707C42A01300310F50DF60DAA
:1005AC00FF3E031DD32A71087302031DDF2A700856
:1005BC007202031CE82A7008F2027108031CF30390
:1005CC00F302751401300310F10CF00CFF3E031D07
:1005DC00E92A0130F702031DD22A7608F1007508CA
:1005EC00F0000800831203138E018F01103090006D
:1005FC00861CFE2A10148618012BFE30C000400801
:10060C0090050F08C2000E08C1004208F90041080D
:10061C00F8000A128A1130220A128A117808831201
:10062C000313A3007908A4007A08A5004830A000A1
:10063C006B30A1004230A2000A128A1194250A12D2
:10064C008A11831203132008B0002108B10022087C
:10065C00B2000A128A110625831203133108C40052
:10066C003008C3004408BF004308BE000800F70070
:10067C007703031D622B74087F3EF5007508FA00A2
:10068C007A08F50004300310F50CFF3E031D492BCE
:10069C007508F6007608F8007A080F39F500750829
:1006AC00F90078080A128A11F7210A128A117908BE
:1006BC000A128A11F721080002307706031D080080
:1006CC007408BF3EF5007508FA007A08F50004308E
:1006DC000310F50CFF3E031D6E2B7508F600760813
:1006EC00F8007A080F39F5007508F90078080A1235
:1006FC008A11F7210A128A1179080A128A11F72134
:10070C000800831203130710871007118711710853
:10071C00803AFF0080307F02031D962B053070025B
:10072C0003189F2B831203130714871407158715BF
:10073C0008007108803AFF0080307F02031DA82B4F
:10074C000C3070020318B12B831203130714871497
:10075C000715871108007108803AFF0080307F026E
:10076C00031DBA2B123070020318C32B8312031310
:10077C00071487140711871108007108803AFF00CD
:10078C0080307F02031DCC2B193070020318080037
:10079C008312031307148710071187110800003008
:1007AC000A128A11DD210A128A118230F500DD301D
:1007BC00F400F40BDF2BF50BDF2BE42B03300A12C8
:1007CC008A11F7210A128A112130F5007630F400D3
:1007DC00F40BEE2BF50BEE2B000003300A128A11F2
:1007EC00F7210A128A114830F5006C30F400F40B32
:1007FC00FD2BF50BFD2B000003300A128A11F7219B
:10080C000A128A1102300A128A11F7210A128A116D
:10081C0002300A128A11F7210A128A1108300A12C0
:10082C008A11F7210A128A1100300A128A11F72153
:10083C000A128A110C300A128A11F7210A128A1133
:10084C0000300A128A11F7210A128A1106300A1294
:10085C008A11F721080002308316031386008701E2
:10086C008801831203138601870188010A128A11F9
:10087C00D5230A128A110A128A11D1210A128A115D
:10088C000A128A11F8220A128A11831203133F08E2
:10089C00D9003E08D8000A128A11C6210A128A1100
:1008AC00F401F40A01300A128A113D230A128A114A
:1008BC000B3083120313C5004508A0005908A20091
:1008CC005808A10048300A128A114C260A128A11C3
:1008DC0048300A128A1111220A128A118312031348
:1008EC005908F1005808F0000A128A1187230A12DD
:1008FC008A11831203135908F1005808F0000A12E8
:10090C008A1120270A128A11023083120313C7009E
:10091C000430C600B930C500C50B922CC60B922C06
:10092C00C70B922C992C412C73080319A22C72081A
:10093C0071047004031DB52C0030F0000030F10080
:10094C000030F20008000130F5007508F3070130A3
:10095C000310F20CF10CF00CFF3E031DAE2CFE301C
:10096C0072050319D02CA92C0130F5007508F3077A
:10097C000130F007003003180130F1070030031884
:10098C000130F20701300310F20CF10CF00CFF3EB9
:10099C00031DC92CFF3072050319DF2CBA2C013052
:1009AC00F30201300310F00DF10DF20DFF3E031DAB
:1009BC00D82CF11BE52C023073020318D52C7318BC
:1009CC00ED2CFF30F0057F30F105FF30F205031000
:1009DC00F30C7308F500F601F70110300310F50D58
:1009EC00F60DF70DFF3E031DF42C7508F004760888
:1009FC00F1047708F204740803190800F2170800D0
:100A0C00831203133008B4003108B5003208B60065
:100A1C000310350D360DB7003708BD003D08031D1A
:100A2C00202D0030B3000030B2000030B100003097
:100A3C00B00008003008B4003108B5003208B60028
:100A4C0017300310B60CB50CB40CFF3E031D272D4C
:100A5C003408B7003708B800B117FF30B005FF30C5
:100A6C00B1050030B2053008B9003108BA003208BF
:100A7C00BB00BC018E30BD02BD1F622D3D08803A0B
:100A8C008F3E0318522D0030B3000030B2000030FE
:100A9C00B1000030B000080001300310BC0CBB0CDE
:100AAC00BA0CB90CFF3E031D532D0130B4003408B1
:100ABC00BD0703197D2D522D18303D02031C7A2DD4
:100ACC000030B3000030B2000030B1000030B00094
:100ADC0008000130B4000310B90DBA0DBB0DBC0DEC
:100AEC00B40B712D0130BD023D08031D6F2D38086C
:100AFC0003198B2DB909BA09BB09BC09B90A031929
:100B0C00BA0A0319BB0A0319BC0A3C08B3003B0818
:100B1C00B2003A08B1003908B00008008312031380
:100B2C002308A6002408A7002508A8000310270DF9
:100B3C00280DA9002908AE002E08031DAC2D00308D
:100B4C00A0000030A1000030A20008002008A60080
:100B5C002108A7002208A8000310270D280DA900C2
:100B6C002908AF002F08031DC22D0030A000003053
:100B7C00A1000030A20008000030AB000030AC0037
:100B8C000030AD0089302F07A6002608AE022308DE
:100B9C00A6002408A7002508A80010300310A80CF4
:100BAC00A70CA60CFF3E031DD42D2608A90029086E
:100BBC00AF002008A6002108A7002208A8001030CA
:100BCC000310A80CA70CA60CFF3E031DE62D26084F
:100BDC00A9002908AF068030A6002608AF05A41787
:100BEC00FF30A305FF30A4050030A505A117FF3089
:100BFC00A005FF30A1050030A2051830A60026087C
:100C0C00AA0001300310AB0DAC0DAD0DFF3E031D62
:100C1C00082E22082502031D192E21082402031D6B
:100C2C00192E20082302031C262E2008A3022108BB
:100C3C00031C210FA4022208031C220AA5022B1458
:100C4C0001300310A30DA40DA50DFF3E031D272E8F
:100C5C000130AA02031D072E2B08F0002C08F1000E
:100C6C002D08F2002E08A6002608F3002F08A70076
:100C7C002708F4000A128A119A24700883120313AD
:100C8C00A0007108A1007208A200080083120313CF
:100C9C00AB002130A3002308A6000130A007FF30D1
:100CAC00200784000A128A1103200A128A11A30059
:100CBC002308AC002C0803191B2F25302C06031914
:100CCC00732E2C08A3002B088400230883138000A8
:100CDC000130A3002308AB07532EA7010130A00756
:100CEC00FF30200784000A128A1103200A128A118D
:100CFC00AC00003A03191B2F643A0319892E0D3AE4
:100D0C000319892E532E2608840083130008A9008A
:100D1C00840A0008AA000230A3002308A607AA1F11
:100D2C00A02E0330A3002308A704A909AA09A90A25
:100D3C000319AA0AAC01AC0A05302C060319C72EFC
:100D4C002C08A3002307013E84000A128A110320F9
:100D5C000A128A11A4000A128A1103200A128A119B
:100D6C00A50025082A02031DBD2E24082902031CF8
:100D7C00C72E0130A3002308AC0705302C06031D39
:100D8C00A62E270803390319D62E2D30A3002B08C5
:100D9C0084002308831380000130A3002308AB07D1
:100DAC002C08A3002308A800FF30A3002308A807E1
:100DBC00280A0319532E0A30F8000030F9002808CD
:100DCC00A3002307013E84000A128A1103200A1291
:100DDC008A11F0000A128A1103200A128A11F100FA
:100DEC002A08F3002908F2000A128A11BC220A12FE
:100DFC008A117108FB007008FA000A128A1151223C
:100E0C000A128A117808303E83120313A4002408B6
:100E1C00AC002C08A3002B0884002308831380004B
:100E2C000130A3002308AB07DA2E2B0884008313B0
:100E3C00800108007108803AFF0080307F02031D9A
:100E4C00292F053070020318532FF401F501750892
:100E5C00803AFF0080307F02031D362F643074020D
:100E6C0003180800831203130716C730F2003E2F35
:100E7C00F20B3D2F412F422F831203130712C73061
:100E8C00F200482FF20B472F4B2F4C2F0130F40759
:100E9C000318F50A0030F5072D2F7108803AFF0072
:100EAC0080307F02031D5C2F0C30700203188A2FD8
:100EBC00F401F5017508803AFF0080307F02031DB4
:100ECC00692F3230740203180800831203130716BB
:100EDC000630F3003030F200F20B722FF30B722F4E
:100EEC0000008312031307120630F3003030F200B7
:100EFC00F20B7E2FF30B7E2F00000130F40703184A
:100F0C00F50A0030F507602F7108803AFF00803039
:100F1C007F02031D932F123070020318C12FF401AE
:100F2C00F5017508803AFF0080307F02031DA02F69
:100F3C0019307402031808008312031307160D30BE
:100F4C00F300FB30F200F20BA92FF30BA92FAE2FFD
:100F5C008312031307120D30F300FB30F200F20B77
:100F6C00B52FF30BB52FBA2F0130F4070318F50A80
:100F7C000030F507972F7108803AFF0080307F0210
:100F8C00031DCA2F193070020318F82FF401F50154
:100F9C007508803AFF0080307F02031DD72F0A307E
:100FAC007402031808008312031307161A30F30097
:100FBC00F830F200F20BE02FF30BE02F000083125D
:100FCC00031307121A30F300F830F200F20BEC2F77
:100FDC00F30BEC2F00000130F4070318F50A003076
:100FEC00F507CE2F831203130712080083010A1290
:040FFC008A11312CF9
:02400E007A3FF7
:00000001FF
